{
  "_format": "hh-sol-artifact-1",
  "contractName": "VanaMarketplace",
  "sourceName": "contracts/VanaMarketplace.sol",
  "abi": [
    {
      "inputs": [],
      "stateMutability": "nonpayable",
      "type": "constructor"
    },
    {
      "anonymous": false,
      "inputs": [
        {
          "indexed": false,
          "internalType": "uint8",
          "name": "version",
          "type": "uint8"
        }
      ],
      "name": "Initialized",
      "type": "event"
    },
    {
      "anonymous": false,
      "inputs": [
        {
          "indexed": true,
          "internalType": "uint256",
          "name": "listingId",
          "type": "uint256"
        },
        {
          "indexed": false,
          "internalType": "address",
          "name": "seller",
          "type": "address"
        }
      ],
      "name": "ListingCanceled",
      "type": "event"
    },
    {
      "anonymous": false,
      "inputs": [
        {
          "indexed": false,
          "internalType": "uint256",
          "name": "newFee",
          "type": "uint256"
        }
      ],
      "name": "MarketplaceFeeUpdated",
      "type": "event"
    },
    {
      "anonymous": false,
      "inputs": [
        {
          "indexed": true,
          "internalType": "uint256",
          "name": "listingId",
          "type": "uint256"
        },
        {
          "indexed": false,
          "internalType": "address",
          "name": "seller",
          "type": "address"
        },
        {
          "indexed": false,
          "internalType": "address",
          "name": "nftContract",
          "type": "address"
        },
        {
          "indexed": false,
          "internalType": "uint256",
          "name": "tokenId",
          "type": "uint256"
        },
        {
          "indexed": false,
          "internalType": "uint256",
          "name": "price",
          "type": "uint256"
        }
      ],
      "name": "NFTListed",
      "type": "event"
    },
    {
      "anonymous": false,
      "inputs": [
        {
          "indexed": true,
          "internalType": "uint256",
          "name": "listingId",
          "type": "uint256"
        },
        {
          "indexed": false,
          "internalType": "address",
          "name": "seller",
          "type": "address"
        },
        {
          "indexed": true,
          "internalType": "address",
          "name": "buyer",
          "type": "address"
        },
        {
          "indexed": false,
          "internalType": "uint256",
          "name": "price",
          "type": "uint256"
        }
      ],
      "name": "NFTSold",
      "type": "event"
    },
    {
      "anonymous": false,
      "inputs": [
        {
          "indexed": true,
          "internalType": "uint256",
          "name": "listingId",
          "type": "uint256"
        },
        {
          "indexed": false,
          "internalType": "address",
          "name": "bidder",
          "type": "address"
        },
        {
          "indexed": false,
          "internalType": "uint256",
          "name": "amount",
          "type": "uint256"
        }
      ],
      "name": "OfferPlaced",
      "type": "event"
    },
    {
      "anonymous": false,
      "inputs": [
        {
          "indexed": true,
          "internalType": "address",
          "name": "previousOwner",
          "type": "address"
        },
        {
          "indexed": true,
          "internalType": "address",
          "name": "newOwner",
          "type": "address"
        }
      ],
      "name": "OwnershipTransferred",
      "type": "event"
    },
    {
      "anonymous": false,
      "inputs": [
        {
          "indexed": false,
          "internalType": "address",
          "name": "account",
          "type": "address"
        }
      ],
      "name": "Paused",
      "type": "event"
    },
    {
      "anonymous": false,
      "inputs": [
        {
          "indexed": true,
          "internalType": "uint256",
          "name": "listingId",
          "type": "uint256"
        },
        {
          "indexed": false,
          "internalType": "uint256",
          "name": "newPrice",
          "type": "uint256"
        }
      ],
      "name": "PriceUpdated",
      "type": "event"
    },
    {
      "anonymous": false,
      "inputs": [
        {
          "indexed": false,
          "internalType": "address",
          "name": "account",
          "type": "address"
        }
      ],
      "name": "Unpaused",
      "type": "event"
    },
    {
      "stateMutability": "payable",
      "type": "fallback"
    },
    {
      "inputs": [
        {
          "internalType": "uint256",
          "name": "listingId",
          "type": "uint256"
        },
        {
          "internalType": "uint256",
          "name": "offerIndex",
          "type": "uint256"
        }
      ],
      "name": "acceptOffer",
      "outputs": [],
      "stateMutability": "nonpayable",
      "type": "function"
    },
    {
      "inputs": [
        {
          "internalType": "uint256",
          "name": "listingId",
          "type": "uint256"
        }
      ],
      "name": "buyNFT",
      "outputs": [],
      "stateMutability": "payable",
      "type": "function"
    },
    {
      "inputs": [
        {
          "internalType": "uint256",
          "name": "listingId",
          "type": "uint256"
        }
      ],
      "name": "cancelListing",
      "outputs": [],
      "stateMutability": "nonpayable",
      "type": "function"
    },
    {
      "inputs": [
        {
          "internalType": "uint256",
          "name": "listingId",
          "type": "uint256"
        }
      ],
      "name": "getOffers",
      "outputs": [
        {
          "components": [
            {
              "internalType": "address",
              "name": "bidder",
              "type": "address"
            },
            {
              "internalType": "uint96",
              "name": "amount",
              "type": "uint96"
            },
            {
              "internalType": "uint40",
              "name": "timestamp",
              "type": "uint40"
            }
          ],
          "internalType": "struct VanaMarketplace.Offer[]",
          "name": "",
          "type": "tuple[]"
        }
      ],
      "stateMutability": "view",
      "type": "function"
    },
    {
      "inputs": [
        {
          "internalType": "uint256",
          "name": "initialFee",
          "type": "uint256"
        }
      ],
      "name": "initialize",
      "outputs": [],
      "stateMutability": "nonpayable",
      "type": "function"
    },
    {
      "inputs": [
        {
          "internalType": "address",
          "name": "nftContract",
          "type": "address"
        },
        {
          "internalType": "uint256",
          "name": "tokenId",
          "type": "uint256"
        },
        {
          "internalType": "uint256",
          "name": "price",
          "type": "uint256"
        }
      ],
      "name": "listNFT",
      "outputs": [],
      "stateMutability": "nonpayable",
      "type": "function"
    },
    {
      "inputs": [
        {
          "internalType": "uint256",
          "name": "",
          "type": "uint256"
        }
      ],
      "name": "listings",
      "outputs": [
        {
          "internalType": "address",
          "name": "seller",
          "type": "address"
        },
        {
          "internalType": "address",
          "name": "nftContract",
          "type": "address"
        },
        {
          "internalType": "uint96",
          "name": "price",
          "type": "uint96"
        },
        {
          "internalType": "uint40",
          "name": "tokenId",
          "type": "uint40"
        },
        {
          "internalType": "bool",
          "name": "active",
          "type": "bool"
        }
      ],
      "stateMutability": "view",
      "type": "function"
    },
    {
      "inputs": [
        {
          "internalType": "uint256",
          "name": "listingId",
          "type": "uint256"
        }
      ],
      "name": "makeOffer",
      "outputs": [],
      "stateMutability": "payable",
      "type": "function"
    },
    {
      "inputs": [],
      "name": "marketplaceFee",
      "outputs": [
        {
          "internalType": "uint256",
          "name": "",
          "type": "uint256"
        }
      ],
      "stateMutability": "view",
      "type": "function"
    },
    {
      "inputs": [],
      "name": "owner",
      "outputs": [
        {
          "internalType": "address",
          "name": "",
          "type": "address"
        }
      ],
      "stateMutability": "view",
      "type": "function"
    },
    {
      "inputs": [],
      "name": "pause",
      "outputs": [],
      "stateMutability": "nonpayable",
      "type": "function"
    },
    {
      "inputs": [],
      "name": "paused",
      "outputs": [
        {
          "internalType": "bool",
          "name": "",
          "type": "bool"
        }
      ],
      "stateMutability": "view",
      "type": "function"
    },
    {
      "inputs": [],
      "name": "renounceOwnership",
      "outputs": [],
      "stateMutability": "nonpayable",
      "type": "function"
    },
    {
      "inputs": [
        {
          "internalType": "uint256",
          "name": "newFee",
          "type": "uint256"
        }
      ],
      "name": "setMarketplaceFee",
      "outputs": [],
      "stateMutability": "nonpayable",
      "type": "function"
    },
    {
      "inputs": [
        {
          "internalType": "address",
          "name": "newOwner",
          "type": "address"
        }
      ],
      "name": "transferOwnership",
      "outputs": [],
      "stateMutability": "nonpayable",
      "type": "function"
    },
    {
      "inputs": [],
      "name": "unpause",
      "outputs": [],
      "stateMutability": "nonpayable",
      "type": "function"
    },
    {
      "inputs": [
        {
          "internalType": "uint256",
          "name": "listingId",
          "type": "uint256"
        },
        {
          "internalType": "uint256",
          "name": "newPrice",
          "type": "uint256"
        }
      ],
      "name": "updateListingPrice",
      "outputs": [],
      "stateMutability": "nonpayable",
      "type": "function"
    },
    {
      "inputs": [],
      "name": "withdrawFees",
      "outputs": [],
      "stateMutability": "nonpayable",
      "type": "function"
    },
    {
      "stateMutability": "payable",
      "type": "receive"
    }
  ],
  "bytecode": "0x60806040523480156200001157600080fd5b50620000226200002860201b60201c565b620001d2565b600060019054906101000a900460ff16156200007b576040517f08c379a0000000000000000000000000000000000000000000000000000000008152600401620000729062000175565b60405180910390fd5b60ff801660008054906101000a900460ff1660ff1614620000ec5760ff6000806101000a81548160ff021916908360ff1602179055507f7f26b83ff96e1f2b6a682f133852f6798a09c465da95921460cefb384740249860ff604051620000e39190620001b5565b60405180910390a15b565b600082825260208201905092915050565b7f496e697469616c697a61626c653a20636f6e747261637420697320696e69746960008201527f616c697a696e6700000000000000000000000000000000000000000000000000602082015250565b60006200015d602783620000ee565b91506200016a82620000ff565b604082019050919050565b6000602082019050818103600083015262000190816200014e565b9050919050565b600060ff82169050919050565b620001af8162000197565b82525050565b6000602082019050620001cc6000830184620001a4565b92915050565b61410e80620001e26000396000f3fe60806040526004361061010d5760003560e01c80638da5cb5b11610095578063c460494311610064578063c4604943146102cf578063de74e57b146102f8578063dfa49e6f14610339578063f2fde38b14610376578063fe4b84df1461039f57610114565b80638da5cb5b146102365780639407ea98146102615780639a2f64741461028a578063ad05f1b4146102a657610114565b80635c975abb116100dc5780635c975abb146101895780636a166964146101b4578063715018a6146101df57806381257bd5146101f65780638456cb591461021f57610114565b8063305a67a8146101165780633f4ba83a1461013f578063476343ee1461015657806351ed82881461016d57610114565b3661011457005b005b34801561012257600080fd5b5061013d60048036038101906101389190612e0d565b6103c8565b005b34801561014b57600080fd5b5061015461087b565b005b34801561016257600080fd5b5061016b61088d565b005b61018760048036038101906101829190612e0d565b610994565b005b34801561019557600080fd5b5061019e610f49565b6040516101ab9190612e55565b60405180910390f35b3480156101c057600080fd5b506101c9610f60565b6040516101d69190612e7f565b60405180910390f35b3480156101eb57600080fd5b506101f4610f66565b005b34801561020257600080fd5b5061021d60048036038101906102189190612e9a565b610f7a565b005b34801561022b57600080fd5b506102346117a5565b005b34801561024257600080fd5b5061024b6117b7565b6040516102589190612f1b565b60405180910390f35b34801561026d57600080fd5b5061028860048036038101906102839190612e0d565b6117e1565b005b6102a4600480360381019061029f9190612e0d565b61186f565b005b3480156102b257600080fd5b506102cd60048036038101906102c89190612f62565b611b9f565b005b3480156102db57600080fd5b506102f660048036038101906102f19190612e9a565b612121565b005b34801561030457600080fd5b5061031f600480360381019061031a9190612e0d565b6123f0565b604051610330959493929190612ffc565b60405180910390f35b34801561034557600080fd5b50610360600480360381019061035b9190612e0d565b61249c565b60405161036d919061316d565b60405180910390f35b34801561038257600080fd5b5061039d6004803603810190610398919061318f565b6125cb565b005b3480156103ab57600080fd5b506103c660048036038101906103c19190612e0d565b61264e565b005b6103d06127e9565b6103d8612838565b80600073ffffffffffffffffffffffffffffffffffffffff1660c9600083815260200190815260200160002060000160009054906101000a900473ffffffffffffffffffffffffffffffffffffffff1673ffffffffffffffffffffffffffffffffffffffff160361047e576040517f08c379a000000000000000000000000000000000000000000000000000000000815260040161047590613219565b60405180910390fd5b60c9600082815260200190815260200160002060020160059054906101000a900460ff166104e1576040517f08c379a00000000000000000000000000000000000000000000000000000000081526004016104d890613285565b60405180910390fd5b600060c9600084815260200190815260200160002090503373ffffffffffffffffffffffffffffffffffffffff168160000160009054906101000a900473ffffffffffffffffffffffffffffffffffffffff1673ffffffffffffffffffffffffffffffffffffffff161461058a576040517f08c379a0000000000000000000000000000000000000000000000000000000008152600401610581906132f1565b60405180910390fd5b8060020160059054906101000a900460ff166105db576040517f08c379a00000000000000000000000000000000000000000000000000000000081526004016105d29061335d565b60405180910390fd5b60008160020160056101000a81548160ff021916908315150217905550600060cb60008360010160009054906101000a900473ffffffffffffffffffffffffffffffffffffffff1673ffffffffffffffffffffffffffffffffffffffff1673ffffffffffffffffffffffffffffffffffffffff16815260200190815260200160002060008360020160009054906101000a900464ffffffffff1664ffffffffff16815260200190815260200160002060006101000a81548160ff021916908315150217905550600060ca6000858152602001908152602001600020905060005b81805490508110156108155760008282815481106106dc576106db61337d565b5b906000526020600020906002020160000160009054906101000a900473ffffffffffffffffffffffffffffffffffffffff1673ffffffffffffffffffffffffffffffffffffffff168383815481106107375761073661337d565b5b906000526020600020906002020160000160149054906101000a90046bffffffffffffffffffffffff166bffffffffffffffffffffffff1660405161077b906133dd565b60006040518083038185875af1925050503d80600081146107b8576040519150601f19603f3d011682016040523d82523d6000602084013e6107bd565b606091505b5050905080610801576040517f08c379a00000000000000000000000000000000000000000000000000000000081526004016107f89061343e565b60405180910390fd5b50808061080d9061348d565b9150506106bb565b5060ca600085815260200190815260200160002060006108359190612d39565b837fbb7be15645f4eda9d65591c3a81b5e39256151f91bc25180315de259167c2e23336040516108659190612f1b565b60405180910390a2505050610878612882565b50565b61088361288b565b61088b612909565b565b61089561288b565b6000479050600081116108dd576040517f08c379a00000000000000000000000000000000000000000000000000000000081526004016108d490613521565b60405180910390fd5b60006108e76117b7565b73ffffffffffffffffffffffffffffffffffffffff168260405161090a906133dd565b60006040518083038185875af1925050503d8060008114610947576040519150601f19603f3d011682016040523d82523d6000602084013e61094c565b606091505b5050905080610990576040517f08c379a00000000000000000000000000000000000000000000000000000000081526004016109879061358d565b60405180910390fd5b5050565b61099c6127e9565b6109a4612838565b80600073ffffffffffffffffffffffffffffffffffffffff1660c9600083815260200190815260200160002060000160009054906101000a900473ffffffffffffffffffffffffffffffffffffffff1673ffffffffffffffffffffffffffffffffffffffff1603610a4a576040517f08c379a0000000000000000000000000000000000000000000000000000000008152600401610a4190613219565b60405180910390fd5b60c9600082815260200190815260200160002060020160059054906101000a900460ff16610aad576040517f08c379a0000000000000000000000000000000000000000000000000000000008152600401610aa490613285565b60405180910390fd5b600060c9600084815260200190815260200160002090508060020160059054906101000a900460ff16610b15576040517f08c379a0000000000000000000000000000000000000000000000000000000008152600401610b0c90613285565b60405180910390fd5b8060010160149054906101000a90046bffffffffffffffffffffffff166bffffffffffffffffffffffff163414610b81576040517f08c379a0000000000000000000000000000000000000000000000000000000008152600401610b78906135f9565b60405180910390fd5b8060000160009054906101000a900473ffffffffffffffffffffffffffffffffffffffff1673ffffffffffffffffffffffffffffffffffffffff163373ffffffffffffffffffffffffffffffffffffffff1603610c13576040517f08c379a0000000000000000000000000000000000000000000000000000000008152600401610c0a90613665565b60405180910390fd5b60008160020160056101000a81548160ff021916908315150217905550600060cb60008360010160009054906101000a900473ffffffffffffffffffffffffffffffffffffffff1673ffffffffffffffffffffffffffffffffffffffff1673ffffffffffffffffffffffffffffffffffffffff16815260200190815260200160002060008360020160009054906101000a900464ffffffffff1664ffffffffff16815260200190815260200160002060006101000a81548160ff02191690831515021790555060008061271060cd548460010160149054906101000a90046bffffffffffffffffffffffff166bffffffffffffffffffffffff160281610d1c57610d1b613685565b5b049150818360010160149054906101000a90046bffffffffffffffffffffffff166bffffffffffffffffffffffff1603905060008360000160009054906101000a900473ffffffffffffffffffffffffffffffffffffffff1690508360010160009054906101000a900473ffffffffffffffffffffffffffffffffffffffff1673ffffffffffffffffffffffffffffffffffffffff166342842e0e82338760020160009054906101000a900464ffffffffff166040518463ffffffff1660e01b8152600401610ded939291906136ef565b600060405180830381600087803b158015610e0757600080fd5b505af1158015610e1b573d6000803e3d6000fd5b5050505060008173ffffffffffffffffffffffffffffffffffffffff1683604051610e45906133dd565b60006040518083038185875af1925050503d8060008114610e82576040519150601f19603f3d011682016040523d82523d6000602084013e610e87565b606091505b5050905080610ecb576040517f08c379a0000000000000000000000000000000000000000000000000000000008152600401610ec290613772565b60405180910390fd5b3373ffffffffffffffffffffffffffffffffffffffff16877f8562eb94748e30bb0071e932744ce902b460c683474fcb3bfd567ffa16b1afb2848860010160149054906101000a90046bffffffffffffffffffffffff16604051610f309291906137c3565b60405180910390a3505050505050610f46612882565b50565b6000606560009054906101000a900460ff16905090565b60cd5481565b610f6e61288b565b610f78600061296c565b565b610f826127e9565b610f8a612838565b81600073ffffffffffffffffffffffffffffffffffffffff1660c9600083815260200190815260200160002060000160009054906101000a900473ffffffffffffffffffffffffffffffffffffffff1673ffffffffffffffffffffffffffffffffffffffff1603611030576040517f08c379a000000000000000000000000000000000000000000000000000000000815260040161102790613219565b60405180910390fd5b60c9600082815260200190815260200160002060020160059054906101000a900460ff16611093576040517f08c379a000000000000000000000000000000000000000000000000000000000815260040161108a90613285565b60405180910390fd5b600060c9600085815260200190815260200160002090503373ffffffffffffffffffffffffffffffffffffffff168160000160009054906101000a900473ffffffffffffffffffffffffffffffffffffffff1673ffffffffffffffffffffffffffffffffffffffff161461113c576040517f08c379a0000000000000000000000000000000000000000000000000000000008152600401611133906132f1565b60405180910390fd5b8060020160059054906101000a900460ff1661118d576040517f08c379a00000000000000000000000000000000000000000000000000000000081526004016111849061335d565b60405180910390fd5b600060ca60008681526020019081526020016000209050808054905084106111ea576040517f08c379a00000000000000000000000000000000000000000000000000000000081526004016111e190613838565b60405180910390fd5b60008185815481106111ff576111fe61337d565b5b90600052602060002090600202016040518060600160405290816000820160009054906101000a900473ffffffffffffffffffffffffffffffffffffffff1673ffffffffffffffffffffffffffffffffffffffff1673ffffffffffffffffffffffffffffffffffffffff1681526020016000820160149054906101000a90046bffffffffffffffffffffffff166bffffffffffffffffffffffff166bffffffffffffffffffffffff1681526020016001820160009054906101000a900464ffffffffff1664ffffffffff1664ffffffffff1681525050905060008360020160056101000a81548160ff021916908315150217905550600060cb60008560010160009054906101000a900473ffffffffffffffffffffffffffffffffffffffff1673ffffffffffffffffffffffffffffffffffffffff1673ffffffffffffffffffffffffffffffffffffffff16815260200190815260200160002060008560020160009054906101000a900464ffffffffff1664ffffffffff16815260200190815260200160002060006101000a81548160ff021916908315150217905550600061271060cd5483602001516bffffffffffffffffffffffff166113c29190613858565b6113cc919061389a565b905060008183602001516bffffffffffffffffffffffff166113ee91906138cb565b90508460010160009054906101000a900473ffffffffffffffffffffffffffffffffffffffff1673ffffffffffffffffffffffffffffffffffffffff166342842e0e8660000160009054906101000a900473ffffffffffffffffffffffffffffffffffffffff1685600001518860020160009054906101000a900464ffffffffff166040518463ffffffff1660e01b815260040161148e939291906136ef565b600060405180830381600087803b1580156114a857600080fd5b505af11580156114bc573d6000803e3d6000fd5b5050505060008560000160009054906101000a900473ffffffffffffffffffffffffffffffffffffffff1673ffffffffffffffffffffffffffffffffffffffff168260405161150a906133dd565b60006040518083038185875af1925050503d8060008114611547576040519150601f19603f3d011682016040523d82523d6000602084013e61154c565b606091505b5050905080611590576040517f08c379a000000000000000000000000000000000000000000000000000000000815260040161158790613772565b60405180910390fd5b60005b85805490508110156116f5578881146116e25760008682815481106115bb576115ba61337d565b5b906000526020600020906002020160000160009054906101000a900473ffffffffffffffffffffffffffffffffffffffff1673ffffffffffffffffffffffffffffffffffffffff168783815481106116165761161561337d565b5b906000526020600020906002020160000160149054906101000a90046bffffffffffffffffffffffff166bffffffffffffffffffffffff1660405161165a906133dd565b60006040518083038185875af1925050503d8060008114611697576040519150601f19603f3d011682016040523d82523d6000602084013e61169c565b606091505b50509050806116e0576040517f08c379a00000000000000000000000000000000000000000000000000000000081526004016116d79061343e565b60405180910390fd5b505b80806116ed9061348d565b915050611593565b5060ca60008a815260200190815260200160002060006117159190612d39565b836000015173ffffffffffffffffffffffffffffffffffffffff16897f8562eb94748e30bb0071e932744ce902b460c683474fcb3bfd567ffa16b1afb28860000160009054906101000a900473ffffffffffffffffffffffffffffffffffffffff16876020015160405161178a9291906137c3565b60405180910390a3505050505050506117a1612882565b5050565b6117ad61288b565b6117b5612a32565b565b6000609760009054906101000a900473ffffffffffffffffffffffffffffffffffffffff16905090565b6117e961288b565b6103e881111561182e576040517f08c379a00000000000000000000000000000000000000000000000000000000081526004016118259061394b565b60405180910390fd5b8060cd819055507fe18aa129833f655a8166b6185277fee7a53f67e46fd32329bc2fc2ac21274d55816040516118649190612e7f565b60405180910390a150565b6118776127e9565b61187f612838565b80600073ffffffffffffffffffffffffffffffffffffffff1660c9600083815260200190815260200160002060000160009054906101000a900473ffffffffffffffffffffffffffffffffffffffff1673ffffffffffffffffffffffffffffffffffffffff1603611925576040517f08c379a000000000000000000000000000000000000000000000000000000000815260040161191c90613219565b60405180910390fd5b60c9600082815260200190815260200160002060020160059054906101000a900460ff16611988576040517f08c379a000000000000000000000000000000000000000000000000000000000815260040161197f90613285565b60405180910390fd5b600034116119cb576040517f08c379a00000000000000000000000000000000000000000000000000000000081526004016119c2906139b7565b60405180910390fd5b60c9600083815260200190815260200160002060020160059054906101000a900460ff16611a2e576040517f08c379a0000000000000000000000000000000000000000000000000000000008152600401611a2590613285565b60405180910390fd5b60ca600083815260200190815260200160002060405180606001604052803373ffffffffffffffffffffffffffffffffffffffff168152602001346bffffffffffffffffffffffff1681526020014264ffffffffff16815250908060018154018082558091505060019003906000526020600020906002020160009091909190915060008201518160000160006101000a81548173ffffffffffffffffffffffffffffffffffffffff021916908373ffffffffffffffffffffffffffffffffffffffff16021790555060208201518160000160146101000a8154816bffffffffffffffffffffffff02191690836bffffffffffffffffffffffff16021790555060408201518160010160006101000a81548164ffffffffff021916908364ffffffffff1602179055505050817fd294afec9d7ab02d1bc3b945a2e833190e9ac8c221c99a27a16afab5cf59e9283334604051611b8b9291906139d7565b60405180910390a250611b9c612882565b50565b611ba76127e9565b611baf612838565b600081118015611bcd57506bffffffffffffffffffffffff80168111155b611c0c576040517f08c379a0000000000000000000000000000000000000000000000000000000008152600401611c0390613a4c565b60405180910390fd5b64ffffffffff8016821115611c56576040517f08c379a0000000000000000000000000000000000000000000000000000000008152600401611c4d90613ab8565b60405180910390fd5b60cb60008473ffffffffffffffffffffffffffffffffffffffff1673ffffffffffffffffffffffffffffffffffffffff168152602001908152602001600020600083815260200190815260200160002060009054906101000a900460ff1615611cf4576040517f08c379a0000000000000000000000000000000000000000000000000000000008152600401611ceb90613b24565b60405180910390fd5b60008390503373ffffffffffffffffffffffffffffffffffffffff168173ffffffffffffffffffffffffffffffffffffffff16636352211e856040518263ffffffff1660e01b8152600401611d499190612e7f565b602060405180830381865afa158015611d66573d6000803e3d6000fd5b505050506040513d601f19601f82011682018060405250810190611d8a9190613b59565b73ffffffffffffffffffffffffffffffffffffffff1614611de0576040517f08c379a0000000000000000000000000000000000000000000000000000000008152600401611dd790613bd2565b60405180910390fd5b3073ffffffffffffffffffffffffffffffffffffffff168173ffffffffffffffffffffffffffffffffffffffff1663081812fc856040518263ffffffff1660e01b8152600401611e309190612e7f565b602060405180830381865afa158015611e4d573d6000803e3d6000fd5b505050506040513d601f19601f82011682018060405250810190611e719190613b59565b73ffffffffffffffffffffffffffffffffffffffff1614611ec7576040517f08c379a0000000000000000000000000000000000000000000000000000000008152600401611ebe90613c3e565b60405180910390fd5b60cc600081548092919060010191905055506040518060a001604052803373ffffffffffffffffffffffffffffffffffffffff1681526020018573ffffffffffffffffffffffffffffffffffffffff168152602001836bffffffffffffffffffffffff1681526020018464ffffffffff1681526020016001151581525060c9600060cc54815260200190815260200160002060008201518160000160006101000a81548173ffffffffffffffffffffffffffffffffffffffff021916908373ffffffffffffffffffffffffffffffffffffffff16021790555060208201518160010160006101000a81548173ffffffffffffffffffffffffffffffffffffffff021916908373ffffffffffffffffffffffffffffffffffffffff16021790555060408201518160010160146101000a8154816bffffffffffffffffffffffff02191690836bffffffffffffffffffffffff16021790555060608201518160020160006101000a81548164ffffffffff021916908364ffffffffff16021790555060808201518160020160056101000a81548160ff021916908315150217905550905050600160cb60008673ffffffffffffffffffffffffffffffffffffffff1673ffffffffffffffffffffffffffffffffffffffff168152602001908152602001600020600085815260200190815260200160002060006101000a81548160ff02191690831515021790555060cc547fb0fe4922ac99799c17a4130d5c045ba2ecdf6e15b75b9ea84aaf0dc28724a42b3386868660405161210b9493929190613c5e565b60405180910390a25061211c612882565b505050565b6121296127e9565b612131612838565b81600073ffffffffffffffffffffffffffffffffffffffff1660c9600083815260200190815260200160002060000160009054906101000a900473ffffffffffffffffffffffffffffffffffffffff1673ffffffffffffffffffffffffffffffffffffffff16036121d7576040517f08c379a00000000000000000000000000000000000000000000000000000000081526004016121ce90613219565b60405180910390fd5b60c9600082815260200190815260200160002060020160059054906101000a900460ff1661223a576040517f08c379a000000000000000000000000000000000000000000000000000000000815260040161223190613285565b60405180910390fd5b6000821161227d576040517f08c379a000000000000000000000000000000000000000000000000000000000815260040161227490613cef565b60405180910390fd5b600060c9600085815260200190815260200160002090503373ffffffffffffffffffffffffffffffffffffffff168160000160009054906101000a900473ffffffffffffffffffffffffffffffffffffffff1673ffffffffffffffffffffffffffffffffffffffff1614612326576040517f08c379a000000000000000000000000000000000000000000000000000000000815260040161231d906132f1565b60405180910390fd5b8060020160059054906101000a900460ff16612377576040517f08c379a000000000000000000000000000000000000000000000000000000000815260040161236e9061335d565b60405180910390fd5b828160010160146101000a8154816bffffffffffffffffffffffff02191690836bffffffffffffffffffffffff160217905550837f945c1c4e99aa89f648fbfe3df471b916f719e16d960fcec0737d4d56bd696838846040516123da9190612e7f565b60405180910390a250506123ec612882565b5050565b60c96020528060005260406000206000915090508060000160009054906101000a900473ffffffffffffffffffffffffffffffffffffffff16908060010160009054906101000a900473ffffffffffffffffffffffffffffffffffffffff16908060010160149054906101000a90046bffffffffffffffffffffffff16908060020160009054906101000a900464ffffffffff16908060020160059054906101000a900460ff16905085565b606060ca6000838152602001908152602001600020805480602002602001604051908101604052809291908181526020016000905b828210156125c057838290600052602060002090600202016040518060600160405290816000820160009054906101000a900473ffffffffffffffffffffffffffffffffffffffff1673ffffffffffffffffffffffffffffffffffffffff1673ffffffffffffffffffffffffffffffffffffffff1681526020016000820160149054906101000a90046bffffffffffffffffffffffff166bffffffffffffffffffffffff166bffffffffffffffffffffffff1681526020016001820160009054906101000a900464ffffffffff1664ffffffffff1664ffffffffff1681525050815260200190600101906124d1565b505050509050919050565b6125d361288b565b600073ffffffffffffffffffffffffffffffffffffffff168173ffffffffffffffffffffffffffffffffffffffff1603612642576040517f08c379a000000000000000000000000000000000000000000000000000000000815260040161263990613d81565b60405180910390fd5b61264b8161296c565b50565b60008060019054906101000a900460ff1615905080801561267f5750600160008054906101000a900460ff1660ff16105b806126ac575061268e30612a95565b1580156126ab5750600160008054906101000a900460ff1660ff16145b5b6126eb576040517f08c379a00000000000000000000000000000000000000000000000000000000081526004016126e290613e13565b60405180910390fd5b60016000806101000a81548160ff021916908360ff1602179055508015612728576001600060016101000a81548160ff0219169083151502179055505b612730612ab8565b612738612b11565b612740612b6a565b6103e8821115612785576040517f08c379a000000000000000000000000000000000000000000000000000000000815260040161277c9061394b565b60405180910390fd5b8160cd8190555080156127e55760008060016101000a81548160ff0219169083151502179055507f7f26b83ff96e1f2b6a682f133852f6798a09c465da95921460cefb384740249860016040516127dc9190613e7b565b60405180910390a15b5050565b60026001540361282e576040517f08c379a000000000000000000000000000000000000000000000000000000000815260040161282590613ee2565b60405180910390fd5b6002600181905550565b612840610f49565b15612880576040517f08c379a000000000000000000000000000000000000000000000000000000000815260040161287790613f4e565b60405180910390fd5b565b60018081905550565b612893612bc3565b73ffffffffffffffffffffffffffffffffffffffff166128b16117b7565b73ffffffffffffffffffffffffffffffffffffffff1614612907576040517f08c379a00000000000000000000000000000000000000000000000000000000081526004016128fe90613fba565b60405180910390fd5b565b612911612bcb565b6000606560006101000a81548160ff0219169083151502179055507f5db9ee0a495bf2e6ff9c91a7834c1ba4fdd244a5e8aa4e537bd38aeae4b073aa612955612bc3565b6040516129629190612f1b565b60405180910390a1565b6000609760009054906101000a900473ffffffffffffffffffffffffffffffffffffffff16905081609760006101000a81548173ffffffffffffffffffffffffffffffffffffffff021916908373ffffffffffffffffffffffffffffffffffffffff1602179055508173ffffffffffffffffffffffffffffffffffffffff168173ffffffffffffffffffffffffffffffffffffffff167f8be0079c531659141344cd1fd0a4f28419497f9722a3daafe3b4186f6b6457e060405160405180910390a35050565b612a3a612838565b6001606560006101000a81548160ff0219169083151502179055507f62e78cea01bee320cd4e420270b5ea74000d11b0c9f74754ebdbfc544b05a258612a7e612bc3565b604051612a8b9190612f1b565b60405180910390a1565b6000808273ffffffffffffffffffffffffffffffffffffffff163b119050919050565b600060019054906101000a900460ff16612b07576040517f08c379a0000000000000000000000000000000000000000000000000000000008152600401612afe9061404c565b60405180910390fd5b612b0f612c14565b565b600060019054906101000a900460ff16612b60576040517f08c379a0000000000000000000000000000000000000000000000000000000008152600401612b579061404c565b60405180910390fd5b612b68612c6c565b565b600060019054906101000a900460ff16612bb9576040517f08c379a0000000000000000000000000000000000000000000000000000000008152600401612bb09061404c565b60405180910390fd5b612bc1612cd8565b565b600033905090565b612bd3610f49565b612c12576040517f08c379a0000000000000000000000000000000000000000000000000000000008152600401612c09906140b8565b60405180910390fd5b565b600060019054906101000a900460ff16612c63576040517f08c379a0000000000000000000000000000000000000000000000000000000008152600401612c5a9061404c565b60405180910390fd5b60018081905550565b600060019054906101000a900460ff16612cbb576040517f08c379a0000000000000000000000000000000000000000000000000000000008152600401612cb29061404c565b60405180910390fd5b6000606560006101000a81548160ff021916908315150217905550565b600060019054906101000a900460ff16612d27576040517f08c379a0000000000000000000000000000000000000000000000000000000008152600401612d1e9061404c565b60405180910390fd5b612d37612d32612bc3565b61296c565b565b5080546000825560020290600052602060002090810190612d5a9190612d5d565b50565b5b80821115612dce57600080820160006101000a81549073ffffffffffffffffffffffffffffffffffffffff02191690556000820160146101000a8154906bffffffffffffffffffffffff02191690556001820160006101000a81549064ffffffffff021916905550600201612d5e565b5090565b600080fd5b6000819050919050565b612dea81612dd7565b8114612df557600080fd5b50565b600081359050612e0781612de1565b92915050565b600060208284031215612e2357612e22612dd2565b5b6000612e3184828501612df8565b91505092915050565b60008115159050919050565b612e4f81612e3a565b82525050565b6000602082019050612e6a6000830184612e46565b92915050565b612e7981612dd7565b82525050565b6000602082019050612e946000830184612e70565b92915050565b60008060408385031215612eb157612eb0612dd2565b5b6000612ebf85828601612df8565b9250506020612ed085828601612df8565b9150509250929050565b600073ffffffffffffffffffffffffffffffffffffffff82169050919050565b6000612f0582612eda565b9050919050565b612f1581612efa565b82525050565b6000602082019050612f306000830184612f0c565b92915050565b612f3f81612efa565b8114612f4a57600080fd5b50565b600081359050612f5c81612f36565b92915050565b600080600060608486031215612f7b57612f7a612dd2565b5b6000612f8986828701612f4d565b9350506020612f9a86828701612df8565b9250506040612fab86828701612df8565b9150509250925092565b60006bffffffffffffffffffffffff82169050919050565b612fd681612fb5565b82525050565b600064ffffffffff82169050919050565b612ff681612fdc565b82525050565b600060a0820190506130116000830188612f0c565b61301e6020830187612f0c565b61302b6040830186612fcd565b6130386060830185612fed565b6130456080830184612e46565b9695505050505050565b600081519050919050565b600082825260208201905092915050565b6000819050602082019050919050565b61308481612efa565b82525050565b61309381612fb5565b82525050565b6130a281612fdc565b82525050565b6060820160008201516130be600085018261307b565b5060208201516130d1602085018261308a565b5060408201516130e46040850182613099565b50505050565b60006130f683836130a8565b60608301905092915050565b6000602082019050919050565b600061311a8261304f565b613124818561305a565b935061312f8361306b565b8060005b8381101561316057815161314788826130ea565b975061315283613102565b925050600181019050613133565b5085935050505092915050565b60006020820190508181036000830152613187818461310f565b905092915050565b6000602082840312156131a5576131a4612dd2565b5b60006131b384828501612f4d565b91505092915050565b600082825260208201905092915050565b7f4c697374696e6720646f6573206e6f7420657869737400000000000000000000600082015250565b60006132036016836131bc565b915061320e826131cd565b602082019050919050565b60006020820190508181036000830152613232816131f6565b9050919050565b7f4c697374696e67206973206e6f74206163746976650000000000000000000000600082015250565b600061326f6015836131bc565b915061327a82613239565b602082019050919050565b6000602082019050818103600083015261329e81613262565b9050919050565b7f4e6f74207468652073656c6c6572000000000000000000000000000000000000600082015250565b60006132db600e836131bc565b91506132e6826132a5565b602082019050919050565b6000602082019050818103600083015261330a816132ce565b9050919050565b7f4c697374696e67206e6f74206163746976650000000000000000000000000000600082015250565b60006133476012836131bc565b915061335282613311565b602082019050919050565b600060208201905081810360008301526133768161333a565b9050919050565b7f4e487b7100000000000000000000000000000000000000000000000000000000600052603260045260246000fd5b600081905092915050565b50565b60006133c76000836133ac565b91506133d2826133b7565b600082019050919050565b60006133e8826133ba565b9150819050919050565b7f526566756e64206661696c656400000000000000000000000000000000000000600082015250565b6000613428600d836131bc565b9150613433826133f2565b602082019050919050565b600060208201905081810360008301526134578161341b565b9050919050565b7f4e487b7100000000000000000000000000000000000000000000000000000000600052601160045260246000fd5b600061349882612dd7565b91507fffffffffffffffffffffffffffffffffffffffffffffffffffffffffffffffff82036134ca576134c961345e565b5b600182019050919050565b7f4e6f206665657320746f20776974686472617700000000000000000000000000600082015250565b600061350b6013836131bc565b9150613516826134d5565b602082019050919050565b6000602082019050818103600083015261353a816134fe565b9050919050565b7f5769746864726177616c206661696c6564000000000000000000000000000000600082015250565b60006135776011836131bc565b915061358282613541565b602082019050919050565b600060208201905081810360008301526135a68161356a565b9050919050565b7f496e636f72726563742070726963650000000000000000000000000000000000600082015250565b60006135e3600f836131bc565b91506135ee826135ad565b602082019050919050565b60006020820190508181036000830152613612816135d6565b9050919050565b7f53656c6c65722063616e6e6f7420627579207468656972206f776e204e465400600082015250565b600061364f601f836131bc565b915061365a82613619565b602082019050919050565b6000602082019050818103600083015261367e81613642565b9050919050565b7f4e487b7100000000000000000000000000000000000000000000000000000000600052601260045260246000fd5b6000819050919050565b60006136d96136d46136cf84612fdc565b6136b4565b612dd7565b9050919050565b6136e9816136be565b82525050565b60006060820190506137046000830186612f0c565b6137116020830185612f0c565b61371e60408301846136e0565b949350505050565b7f53656c6c6572207472616e73666572206661696c656400000000000000000000600082015250565b600061375c6016836131bc565b915061376782613726565b602082019050919050565b6000602082019050818103600083015261378b8161374f565b9050919050565b60006137ad6137a86137a384612fb5565b6136b4565b612dd7565b9050919050565b6137bd81613792565b82525050565b60006040820190506137d86000830185612f0c565b6137e560208301846137b4565b9392505050565b7f4f6666657220646f6573206e6f74206578697374000000000000000000000000600082015250565b60006138226014836131bc565b915061382d826137ec565b602082019050919050565b6000602082019050818103600083015261385181613815565b9050919050565b600061386382612dd7565b915061386e83612dd7565b925082820261387c81612dd7565b915082820484148315176138935761389261345e565b5b5092915050565b60006138a582612dd7565b91506138b083612dd7565b9250826138c0576138bf613685565b5b828204905092915050565b60006138d682612dd7565b91506138e183612dd7565b92508282039050818111156138f9576138f861345e565b5b92915050565b7f4665652063616e6e6f7420657863656564203130250000000000000000000000600082015250565b60006139356015836131bc565b9150613940826138ff565b602082019050919050565b6000602082019050818103600083015261396481613928565b9050919050565b7f4f66666572206d7573742062652067726561746572207468616e203000000000600082015250565b60006139a1601c836131bc565b91506139ac8261396b565b602082019050919050565b600060208201905081810360008301526139d081613994565b9050919050565b60006040820190506139ec6000830185612f0c565b6139f96020830184612e70565b9392505050565b7f496e76616c696420707269636500000000000000000000000000000000000000600082015250565b6000613a36600d836131bc565b9150613a4182613a00565b602082019050919050565b60006020820190508181036000830152613a6581613a29565b9050919050565b7f546f6b656e496420746f6f206c61726765000000000000000000000000000000600082015250565b6000613aa26011836131bc565b9150613aad82613a6c565b602082019050919050565b60006020820190508181036000830152613ad181613a95565b9050919050565b7f4e465420616c7265616479206c69737465640000000000000000000000000000600082015250565b6000613b0e6012836131bc565b9150613b1982613ad8565b602082019050919050565b60006020820190508181036000830152613b3d81613b01565b9050919050565b600081519050613b5381612f36565b92915050565b600060208284031215613b6f57613b6e612dd2565b5b6000613b7d84828501613b44565b91505092915050565b7f4e6f7420746865206f776e657200000000000000000000000000000000000000600082015250565b6000613bbc600d836131bc565b9150613bc782613b86565b602082019050919050565b60006020820190508181036000830152613beb81613baf565b9050919050565b7f4d61726b6574706c616365206e6f7420617070726f7665640000000000000000600082015250565b6000613c286018836131bc565b9150613c3382613bf2565b602082019050919050565b60006020820190508181036000830152613c5781613c1b565b9050919050565b6000608082019050613c736000830187612f0c565b613c806020830186612f0c565b613c8d6040830185612e70565b613c9a6060830184612e70565b95945050505050565b7f5072696365206d7573742062652067726561746572207468616e203000000000600082015250565b6000613cd9601c836131bc565b9150613ce482613ca3565b602082019050919050565b60006020820190508181036000830152613d0881613ccc565b9050919050565b7f4f776e61626c653a206e6577206f776e657220697320746865207a65726f206160008201527f6464726573730000000000000000000000000000000000000000000000000000602082015250565b6000613d6b6026836131bc565b9150613d7682613d0f565b604082019050919050565b60006020820190508181036000830152613d9a81613d5e565b9050919050565b7f496e697469616c697a61626c653a20636f6e747261637420697320616c72656160008201527f647920696e697469616c697a6564000000000000000000000000000000000000602082015250565b6000613dfd602e836131bc565b9150613e0882613da1565b604082019050919050565b60006020820190508181036000830152613e2c81613df0565b9050919050565b6000819050919050565b600060ff82169050919050565b6000613e65613e60613e5b84613e33565b6136b4565b613e3d565b9050919050565b613e7581613e4a565b82525050565b6000602082019050613e906000830184613e6c565b92915050565b7f5265656e7472616e637947756172643a207265656e7472616e742063616c6c00600082015250565b6000613ecc601f836131bc565b9150613ed782613e96565b602082019050919050565b60006020820190508181036000830152613efb81613ebf565b9050919050565b7f5061757361626c653a2070617573656400000000000000000000000000000000600082015250565b6000613f386010836131bc565b9150613f4382613f02565b602082019050919050565b60006020820190508181036000830152613f6781613f2b565b9050919050565b7f4f776e61626c653a2063616c6c6572206973206e6f7420746865206f776e6572600082015250565b6000613fa46020836131bc565b9150613faf82613f6e565b602082019050919050565b60006020820190508181036000830152613fd381613f97565b9050919050565b7f496e697469616c697a61626c653a20636f6e7472616374206973206e6f74206960008201527f6e697469616c697a696e67000000000000000000000000000000000000000000602082015250565b6000614036602b836131bc565b915061404182613fda565b604082019050919050565b6000602082019050818103600083015261406581614029565b9050919050565b7f5061757361626c653a206e6f7420706175736564000000000000000000000000600082015250565b60006140a26014836131bc565b91506140ad8261406c565b602082019050919050565b600060208201905081810360008301526140d181614095565b905091905056fea2646970667358221220d8e14a345989a65e606acf5e416d359de27af5d65e37f7ba576d1d824615a46464736f6c63430008130033",
  "linkReferences": {},
  "deployedLinkReferences": {}
}